:020000020000FC
:040000000C9422003A
:040010000C946401E7
:100040000C941E020FEF0DBF18E01EBF3F065B4F62
:10005000666D7D077F6F00E00093C100409A38987D
:10006000419A3998429A3A9818E317B91FEF1AB98A
:100070001FE314B90027112707E000936C0002E08A
:10008000009368000E941602789450E020E030E06F
:1000900040E060E070E080E090E0A0E0B0E0C0E030
:1000A000D0E0E0E0F0E0222433244424552450FF43
:1000B0000C945C000C946B0051FF0C9461000C9448
:1000C0007A0052FF0C9466000C947F0053FF0C944E
:1000D000A7000C94540151FF0C9484000C94700000
:1000E00052FF0C9493000C94750053FF0C94440140
:1000F0000C94570052FF0C948E000C949D0053FFFB
:100100000C941C010C94570052FF0C9489000C9421
:10011000980053FF0C94EF000C94570053FF0C947D
:10012000F8000C94570053FF0C940C010C945700EA
:1001300053FF0C942C010C94570053FF0C9438017E
:100140000C94570050FF0C945C000C946B00449886
:10015000459A0E9423020E9437020E944B020E948D
:100160005F020E9473020E948702223359F72227FE
:100170004F9A5F9B30E05F9930E8C395C23011F72A
:10018000CC2783958A30F1F6882793959630D1F65F
:10019000992773957A30B1F67727A395A63091F613
:1001A000AA27E2E0EB130C94DB00E3E0E6130C94E7
:1001B000DB006627BB2763956A3021F66627B39577
:1001C0000C94570072110C94A200A3110C94A2007D
:1001D00064110C94A200B511439A0C9457004598F1
:1001E000349A0C94570050FF0C945C000C946B00F4
:1001F000459A449A0E94F3020E9407030E941B033F
:100200000E942F03223379F722274F9A5F9B30E019
:100210005F9930E80C94570044980E9473020E9442
:1002200087022233C9F72227359A4F9A5F9B30E025
:100230005F9930E80C94570044980E944B020E944A
:100240005F022233C9F72227359A4F9A5F9B30E02D
:100250005F9930E80C94570044982233E9F722273D
:10026000349A4F9A5F9B30E05F9930E80C945700C6
:1002700045982233E9F72227349A4F9A5F9B30E062
:100280005F9930E80C9457000E941B030E942F03D3
:100290002233D1F72227349A359A4F9A5F9B30E068
:1002A0005F9930E80C9457000E94F3020E94070304
:1002B0002233D1F72227349A359A4F9A5F9B30E048
:1002C0005F9930E80C9457000F930FB70F9350FFCE
:1002D0000C946C010C947B0151FF0C9471010C94F3
:1002E0008A0152FF0C9476010C948F0153FF0C94F9
:1002F000B2010C94040251FF0C9494010C948001FF
:1003000052FF0C94A3010C94850153FF0C94F70148
:100310000C94110252FF0C949E010C94AD0153FFFA
:100320000C94E0010C94110252FF0C9499010C946E
:10033000A80153FF0C94BD010C94110253FF0C94BF
:10034000C8010C94110253FF0C94D3010C941102B8
:1003500053FF0C94ED010C94110253FF0C94F20125
:100360000C94110206B100FF51E006B101FF52E00A
:1003700006B102FF53E00C94110206B100FF50E0F9
:1003800006B101FF52E006B102FF55E00C941102E4
:1003900006B102FF50E006B101FF51E006B100FFD7
:1003A00057E00C94110206B102FF54E006B100FFC1
:1003B0000C94B70206B101FF0C94CF020C94110209
:1003C00006B102FF50E006B100FF0C949B0206B19B
:1003D00001FF0C94A3020C94110206B102FF56E037
:1003E0000C94110206B102FF51E00C94110206B107
:1003F00000FF58E006B101FF0C94670306B102FF4D
:100400000C947F030C94110206B100FF52E006B178
:1004100001FF0C94430306B102FF0C944F030C94AC
:100420001102D99A0F910FBF0F91189515E015BDC4
:1004300013E616BD11E010936E00089513E616BD85
:10044000A89A239518952C982B982A98299828983B
:10045000D82FF0E0ECE4ED0FD4912C982B982A984B
:1004600029982898D30FDBB940E245B908952D9813
:100470002B982A9829982898D92FF0E0ECE4ED0FD2
:10048000D4912D982B982A9829982898D30FDBB9C6
:1004900040E145B908952D982C982A9829982898D4
:1004A000D72FF0E0ECE4ED0FD4912D982C982A98FA
:1004B00029982898D30FDBB948E045B908952D98BD
:1004C0002C982B9829982898DA2FF0E0ECE4ED0F7F
:1004D000D4912D982C982B9829982898D30FDBB974
:1004E00044E045B908952D982C982B982A9828987F
:1004F000D62FF0E0ECE4ED0FD4912D982C982B98AA
:100500002A982898D30FDBB942E045B908952D9871
:100510002C982B982A982998DB2FF0E0ECE4ED0F2B
:10052000D4912D982C982B982A982998D30FDBB921
:1005300041E045B90895793071F47727A53071F419
:10054000AA270C941102793061F47727A53061F461
:10055000AA270C94110273950C941102A3950C9484
:1005600011027A950C941102AA950C941102E2E002
:10057000EB130C94C302E3E0E6130C94C30266276A
:10058000BB270C941102E9E06E130C94E702662776
:10059000E9E0BE130C94EA02BB270C941102E2E0DE
:1005A000EB130C94DB02E3E0E6130C94DB0266270A
:1005B000BB270C941102E0E06E130C94ED0263E093
:1005C000E0E0BE130C94F002B2E00C9411026395CB
:1005D0000C941102B3950C9411026A950C941102BB
:1005E000BA950C9411022D982C982A98299828983D
:1005F000D22DF0E0ECE4ED0FD4912D982C982A98B0
:1006000029982898D30FDBB948E045B908952D986B
:100610002C982B9829982898D32DF0E0ECE4ED0F36
:10062000D4912D982C982B9829982898D30FDBB922
:1006300044E045B908952D982C982B982A9828982D
:10064000D42DF0E0ECE4ED0FD4912D982C982B985C
:100650002A982898D30FDBB942E045B908952D9820
:100660002C982B982A982998D52DF0E0ECE4ED0FE2
:10067000D4912D982C982B982A982998D30FDBB9D0
:1006800041E045B90895E9E02E120C945B03222461
:10069000E5E03E120C945E0333240C941102E9E071
:1006A0002E120C9461032224E5E03E120C946403A4
:1006B00033240C94110223940C94110233940C945F
:1006C00011022A940C9411023A940C941102E2E063
:1006D0005E120C947303E3E04E120C9473034424F3
:1006E00055240C941102E9E04E120C949903442411
:1006F000E2E05E120C949C0355240C941102E2E09B
:100700005E120C948B03E3E04E120C948B03442492
:1007100055240C941102E9E04E120C949F03E0E082
:100720004E2EE2E05E120C94A203E0E05E2E0C94EA
:10073000110243940C94110253940C9411024A94A4
:0A0740000C9411025A940C9411025B
:00000001FF
